:020000040800F2
:10000000D0850020AD02000869090008A508000895
:100010006509000845050008651500080000000096
:10002000000000000000000000000000D9090008E6
:10003000C506000800000000AB0900080112000816
:10004000C7020008C7020008C7020008C70200086C
:10005000C7020008C7020008C7020008C70200085C
:10006000C7020008C7020008C7020008C70200084C
:10007000C7020008C7020008C7020008C70200083C
:10008000C7020008C7020008C7020008C70200082C
:10009000C7020008C7020008C7020008C70200081C
:1000A000C7020008C7020008C7020008C70200080C
:1000B000C7020008C7020008C7020008C7020008FC
:1000C000C7020008C7020008C7020008C7020008EC
:1000D000C702000811150008C7020008C70200087F
:1000E000C7020008C7020008C7020008C7020008CC
:1000F000C7020008C7020008C7020008C7020008BC
:10010000C7020008C702000895120008C7020008CD
:10011000C7020008C7020008C7020008C70200089B
:10012000490600089D060008C7020008C70200082B
:10013000C7020008C7020008C7020008C70200087B
:10014000C7020008C7020008C7020008C70200086B
:10015000C7020008C702000800000000C70200082C
:10016000C7020008C70200080000000000000000ED
:10017000C7020008C7020008C7020008000000000C
:1001800000000000C7020008C7020008C7020008FC
:10019000C70200080000000000000000000000008E
:1001A000000000000000000000000000C70200087E
:1001B000C702000800000000C7020008000000009D
:1001C000000000000000000000000000000000002F
:1001D0000000000000000000C7020008C70200087D
:1001E000C7020008C7020008C7020008C7020008CB
:1001F000C7020008C7020008C7020008C7020008BB
:10020000C7020008C7020008C702000800F002F891
:1002100000F03CF80AA090E8000C82448344AAF164
:100220000107DA4501D100F031F8AFF2090EBAE862
:100230000F0013F0010F18BFFB1A43F0010318471A
:10024000282F0000482F0000103A24BF78C878C13A
:10025000FAD8520724BF30C830C144BF04680C60CC
:10026000704700000023002400250026103A28BF14
:1002700078C1FBD8520728BF30C148BF0B60704718
:100280001FB502F043FB1FBD10B510BD00F025F9EE
:100290001146FFF7F5FF01F0AFFD00F043F903B49D
:1002A000FFF7F2FF03BC00F047F900000948804760
:1002B00009480047FEE7FEE7FEE7FEE7FEE7FEE748
:1002C000FEE7FEE7FEE7FEE704480549054A064B60
:1002D00070470000051200080D020008D07F0020C2
:1002E000D0850020D0810020D081002053EA020C6C
:1002F00000F069802DE9F04B4FF00006002B1FBF86
:10030000B3FA83F503FA05F424FA05F65E4012BF4A
:100310001643B2FA82F502FA05F4C5F120051EBFB4
:1003200022FA05FC44EA0C04203556EA044C4FEA54
:10033000144418BF641C4FF000084FF000099042AD
:1003400071EB030C39D3002919BFB1FA81F701FA17
:1003500007F6B0FA80F700FA07F6C7F120071EBFCC
:1003600020FA07FC46EA0C062037B6FBF4FCA7EBA4
:100370000507103F07F01F0BCBF120060CFA0BFB13
:100380002CFA06F644BFB3460026202FA4BF5E46D3
:100390004FF0000B5BEA060C08BF4FF0010B19EBA6
:1003A0000B09ABFB027C48EB0608C01B06FB02CC2A
:1003B0000BFB03CC71EB0C01C1E70B460246414637
:1003C0004846BDE8F08B13B54FF000004FF0000138
:1003D000AFF30080BDE81C407047032A40F2308034
:1003E00010F0030C00F0158011F8013BBCF1020F76
:1003F000624498BF11F801CB00F8013B38BF11F8F7
:10040000013BA2F1040298BF00F801CB38BF00F80D
:10041000013B11F0030300F02880083AC0F0088087
:1004200051F8043B083A51F804CBA0E80810F5E76E
:10043000121D5CBF51F8043B40F8043BAFF3008051
:10044000D20724BF11F8013B11F801CB48BF11F8C6
:10045000012B24BF00F8013B00F801CB48BF00F896
:10046000012B704770477047704710B5203AC0F0B5
:100470000B80B1E81850203AA0E81850B1E81850A5
:10048000A0E81850BFF4F5AF5FEA027C24BFB1E8E2
:100490001850A0E8185044BF18C918C0BDE8104053
:1004A0005FEA827C24BF51F8043B40F8043B08BF5C
:1004B0007047D20728BF31F8023B48BF11F8012B23
:1004C00028BF20F8023B48BF00F8012B704700000E
:1004D00000487047707F002070477546FFF7F8FFAF
:1004E000AE4605006946534620F00700854618B021
:1004F00020B5FFF7E9FEBDE820404FF000064FF0C1
:1005000000074FF000084FF0000B21F00701AC4648
:10051000ACE8C009ACE8C009ACE8C009ACE8C00967
:100520008D46704710B50446AFF300802046BDE805
:100530001040FFF7B4BE000001491820ABBEFEE733
:100540002600020000BFFEE770B502460B46002001
:1005500000210AE0545C84EA2025EDB2044E36F80E
:10056000155085EA0025A8B2491C9942F2DB70BDFE
:10057000602A000870B502460B464FF0FF3100209C
:100580000CE0155C4D40ECB26FF07F4505EA11259B
:10059000044E56F8246085EA0601401C9842F0D1CA
:1005A000C84370BD602C0008F0B503460C464FF000
:1005B000FF31002012E01E18964201D1C01C0CE051
:1005C0001E5C4E40F5B26FF07F4606EA1126054FDD
:1005D00057F8257086EA070100BF401CA042EAD107
:1005E000C843F0BD602C000870B50246002300200F
:1005F00005E0145C83EA0405034E735D401C8842E9
:10060000F7DB184670BD0000602900080CB515E046
:100610000B48006801900B4800680090084800688B
:100620000199884200D209E000210B46DDE9000271
:10063000114340EA0302084611460CBDE8E70000FA
:10064000240C00400000002010B5022001F09AF9AF
:10065000E0B1022001F086F9022001F093F9A8B17F
:1006600000210B4801F06CF9022001F07BF94FF4F6
:10067000805001F047FD4FF48053064A0649044874
:1006800001F09AFF0121024801F05AF910BD000063
:1006900008640240742000200410014010B520209E
:1006A00001F070F948B1202001F05CF90021034805
:1006B00001F046F900200249087010BD1C64024098
:1006C0004200002070470000F0B5C1B006460F465A
:1006D0001446702C02D003BE41B0F0BD102221A9F7
:1006E000304600F01EFE0025002009E021A9095C2B
:1006F000084A515C694001AA115421A90D5C401CB3
:100700008028F3DB1022394601A800F042FE00BF2A
:10071000E2E70000E0300008F0B5C1B006460F4641
:100720001446702C02D003BE41B0F0BD102221A9A6
:10073000304600F0F6FD0025002009E021A9095C03
:10074000084A515C694001AA115421A90D5C401C62
:100750008028F3DB1022394601A800F01AFE00BF02
:10076000E2E70000603000082DE9F04105460F4641
:1007700014462E46B846B6F1006F00D203BE002CD8
:1007800000DC03BE08E098F80010304601F04EFA95
:1007900008F10108761C641E002CF4DCBDE8F08131
:1007A00030B50346094A09480838006884B200F0A9
:1007B00063F8054610680860506848609068886073
:1007C00045EA0340C860A00230BD0000E8F7FF1F03
:1007D0002DE9F04704460E46D4F80804401C10B931
:1007E0001220BDE8F087D4F8047404F204424FF4F8
:1007F00000612046FFF7D8FE0546AF4201D00E202B
:10080000EFE7D4F808041549884201D00C20E8E746
:10081000D4F82474D4F8140400F50068D4F81894BB
:1008200049464046FFF7A6FE0546AF4201D00A20E2
:10083000D7E7D4F8000408B11420D2E7D4F81404A0
:10084000A04201D01020CCE7002E05DBD4F8100424
:10085000B04201D01620C4E70020C2E70000010129
:1008600010B50346585C012494402040002801DD67
:10087000012010BD0020FCE702480088C0F30B00F7
:1008800070470000002004E001460722002003E03A
:10089000034B1B5C0B54401C9042F9DB1046704725
:1008A0006031000800BFFEE700F0C0F900212848D1
:1008B000FFF78EFF08B9012000E0002025490870ED
:1008C00000BFFFF7A3FE244BC41841F1000500BF91
:1008D000FFF79CFE001BA94106D201F0CBFB18B923
:1008E00001F0B6FB0028F3D001F0C4FB38B9194879
:1008F000007820B1022000F027FC00F057F8002615
:10090000FFF784FE154BC41841F1000519E001F012
:100910009FFBB0B1FFF77AFE114BC41841F10005FF
:1009200001F0C2FB0746002F0ADBFD2F04D1761C25
:10093000642E02DB00F03AF80026F8B200F01CFA50
:1009400000BFFFF763FE001BA941E0D300F02EF8C3
:10095000000001081400002040420F00809698001B
:10096000404B4C0000BFFEE77047F0B503460C4615
:1009700003F00701C1F10700042801D9042001E0B8
:10098000C1F107000646081D072801D2002000E03B
:10099000C81E05460120B040401E2040A840012747
:1009A000AF407F1E17403843F0BD704700BFBFF314
:1009B0004F8F0748006800F4E06006490843001DB7
:1009C00003490860BFF34F8F00BF00BF00BFFDE7C2
:1009D0000CED00E00000FA057047000000B502468B
:1009E00005480068904204D000F0F0F84FF0FF3066
:1009F00000BD0020FCE700003800002070B515485D
:100A00000068782802D000F0E1F870BD1248006854
:100A1000417811480068007801EB00200E49096810
:100A2000897801EB00200C490968C97801EB0024A2
:100A300009480068057970220849074800680830AD
:100A4000FFF742FE2A4605492046FFF78DFE00BF0C
:100A5000DBE700003800002054290008907E0020C9
:100A600070B515480068782802D000F0AFF870BD66
:100A700012480068417811480068007801EB0020B6
:100A80000E490968897801EB00200C490968C9788A
:100A900001EB0024094800680579702208490748DD
:100AA00000680830FFF738FE2A4605492046FFF760
:100AB0005BFE00BFDBE7000038000020542900087F
:100AC000007F002070B5FFF7A1FD2C4B0CCB841AE2
:100AD00061EB03052948D0E9001009196841274A4C
:100AE000C2E90010264BE21A75F1000008DA254829
:100AF000006825490978884202D100F089FA70BD62
:100B0000214800781F49086020482149096850F8A9
:100B10002100401C1D491E4A126841F822001C4851
:100B200000680C380B2826D2DFE800F0060B0E1305
:100B30001825252225251D0000F07EFA00F068FA10
:100B400019E000F065FA16E000F072FA00F060FAC1
:100B500011E000F01FF800F05BFA0CE0FFF74EFF29
:100B600000F056FA07E0FFF77BFF00F051FA02E0D1
:100B700000F0AEF800BF00BF00BFC0E7500000208B
:100B8000404B4C00480000203D00002090780020A1
:100B90003400002070B5342001F08AF8094C0BE0D5
:100BA000204600F0F5FF0546032D03D001F096F82E
:100BB000284670BD04F5803403488442F0D32846AB
:100BC000F7E70000000001080000070800200149C5
:100BD000086070472C0000202DE9F04704460D46C0
:100BE000D4F82084D4F810942646404608F1010831
:100BF000375CB9F1020F01D9BDE8F0870A480560FA
:100C0000002007E0414608F10108725C0649091D11
:100C10000A54401CB842F5DB3A1D03490C2000F091
:100C2000B1F900BFE8E70000907C002000200B49EC
:100C300008600B49086001200A49086000200A4941
:100C4000086000BF04E00021084A12681154401CEB
:100C5000B0F5006FF7DB0020704700004400002073
:100C600038000020280000202C0000205429000813
:100C700000B5024612480068002802DCFFF7A6FF14
:100C800000BD10480068072802D0FFF79FFFF7E774
:100C90000D4801680068401C0B4B18600B48006849
:100CA000425418460068B0F5006F02D3FFF78EFF7C
:100CB000E6E703480068401E0149086000BFDFE71F
:100CC000300000202C0000203800002054290008AB
:100CD00008B50020FFF782FE00B108BD104800787B
:100CE0008DF8000004208DF80100022269462120C1
:100CF00000F048F900F0F2FF00BF00BFBFF34F8FD4
:100D00000848006800F4E06007490843001D0549F1
:100D10000860BFF34F8F00BF00BF00BF00BFFDE7FB
:100D20003D0000200CED00E00000FA0570B50A203F
:100D30000F490860081DFFF7A7FD05462A1D0C494D
:100D40000C2000F01FF9002400210A48FFF740FDA5
:100D500008B9012000E0002004463CB10B21054801
:100D6000FFF73AFF0E210348FFF736FF70BD000082
:100D7000907D00200000010870B504461A48006804
:100D8000022809D1204600F049F8C5B2012D01D151
:100D9000FFF798FE284670BD1348006801281FD150
:100DA000FD2C1AD111480068401C10490860084603
:100DB0000068052804DB02200B49086000F028F9D0
:100DC000204600F02BF8C5B2012D04D1FFF77AFEC2
:100DD0000220054908600020DDE76FF00900DAE72E
:100DE0006FF00A00D7E70000280000204400002030
:100DF0000020054908600549086005490860054963
:100E000008600549087070472C0000203000002061
:100E100034000020380000203C00002070B504465B
:100E20004F480068002803DB4D480068082803DDB0
:100E300003BE6FF0020070BD4A4849490968445436
:100E40004748006809287DD2DFE800F005161C221B
:100E500028444A546500FFF7CBFFFD2C01D1002048
:100E6000E9E7FC2C04D0FFF7B1FE4FF0FF30E2E7DA
:100E700001203B49086070E03B480460022038498B
:100E800008606AE03948046003203549086064E07E
:100E9000374804700420324908605EE03548047029
:100EA00004213048FFF7A0FB32490978884204D07A
:100EB000FFF78CFE4FF0FF30BDE72C48006820B9EB
:100EC0000020274908600120B5E705202449086073
:100ED0000020B0E7284804800620214908603CE053
:100EE0002548007844EA00202349088007201C494F
:100EF000086032E01D48006848B12046FFF7B8FEA0
:100F00001A48006810B908201549086025E0082033
:100F10001349086000BFFD2C04D0FFF757FE4FF0C7
:100F2000FF3088E71548017815480068FFF70CFB8B
:100F3000054611480088854205D0FFF747FE4FF06F
:100F4000FF3078E704E0002005490860012072E7DF
:100F5000FFF73CFE4FF0FF306DE700BF00206AE76F
:100F60002C0000207470002034000020300000208D
:100F70003D0000203E0000204000002038000020FE
:100F8000542900082DE9FC4707460D461446FC206D
:100F90008DF800008DF80170E0B28DF802001B485A
:100FA00000788DF8030019480078401C1749087034
:100FB00004216846FFF718FB8146E1B22846FFF797
:100FC000C3FA8046002604E01DF8060000F086F80B
:100FD000761C042EF8DB484600F080F8002C12DD69
:100FE0004FEA282000F07AF808F0FF0000F076F8C9
:100FF000002603E0A85D00F071F8761CA642F9DB3C
:10100000FD2000F06BF8BDE8FC8700003C000020EC
:1010100008B5064800788DF8000003208DF801001F
:10102000022269462120FFF7ADFF08BD3D000020E8
:1010300010B500F067FE10BD30B597B0FFF776FE33
:1010400022490020FFF7ACFB054602200190204812
:1010500002901E4800681D49496808441B49896878
:101060004840069019480068079018484168089160
:1010700081680991C1680A9116480590C0020390E1
:10108000C01204900BAC1348206005F100601149B8
:10109000401A60600020A060A06810B90E48006887
:1010A00000E00020E0601034002020606060A0605C
:1010B000E060103420606060A060E060582201A908
:1010C0000C20FFF75FFF17B030BD000080780020D4
:1010D00000000101000001081C04010810B50446CD
:1010E00000BF154800780028FBD114480470002187
:1010F000134800F025FC202000F034FC402000F0D4
:1011000031FC01230D4A0F490D4801F055FA012029
:101110000949087001210A4800F012FC00BF064886
:1011200000780028FBD100BF0648001F0068C0F30C
:1011300080100028F8D010BD42000020430000209D
:101140001C6402400410014010B50446002000F069
:10115000ADFC0849884204D12146012000F0B4FCCE
:1011600007E00449002000F0AFFC0021012000F05E
:10117000ABFC10BD78563412194C2568666872B6FF
:1011800000204FF0E02108614861886100BF08E05D
:101190004FF0FF32134941F82020134941F8202035
:1011A000401C0828F4D30020FFF7CEFF0F4804604E
:1011B00000BF85F3088800BF62B600220C490D48C5
:1011C00001F04CF9002202210B4800F022FC0B48F0
:1011D0000068401C09490860B04700BFFEE70000F6
:1011E0000008010880E100E080E200E008ED00E096
:1011F00004000C00001001401C64024008000020A4
:10120000704700001F48006840F470001D490860E6
:101210001D48006820F00100401C1B49086000BF09
:1012200019480068C0F340000028F9D0164808307B
:10123000006820F0030014490831086000BF12481C
:1012400008300068C0F381000028F8D10E4800681B
:101250000E4908400C49086000200B49083108601D
:101260000B48091F086000200749A03108604FF4AF
:101270001F0005490C3108604FF0006001498039BA
:101280000860704788ED00E000380240FFFFF2FE82
:10129000023003000A48006800F0010078B10948F4
:1012A0000068401C074908600748007838B90120E9
:1012B0000549087003480068401E024908607047ED
:1012C000100C004000000020040000202DE9F04731
:1012D00080460E46002420E00027002519E0C4EBDC
:1012E000C4014819C11700EB51714FEAE109C4EB81
:1012F000C4014819C11700EB5171C910A0EBC10A14
:10130000524649464046FFF7ABFAA8403844C7B2B8
:101310006D1C072DE3DB3755641C082CDCDBBDE8B6
:10132000F0872DE9F04105460E461746002407E0F8
:1013300006EBC401C4EBC4025019FFF7C7FF641CDD
:10134000BC42F5DBBDE8F0812DE9F04780460E4652
:1013500000241AE00027002513E005EBC400072154
:1013600090FBF1F905EBC40090FBF1F201FB120ACE
:10137000524649464046FFF773FAA8403844C7B280
:101380006D1C082DE9DB3755641C072CE2DBBDE83A
:10139000F0872DE9F04105460E461746002407E088
:1013A000C4EBC402911905EBC400FFF7CDFF641C28
:1013B000BC42F5DBBDE8F0812DE9F04786B004467C
:1013C0000E4602A800F056F93F48844202D03F483A
:1013D000844201D1049D00E0059DA0681FFA80FAB7
:1013E000B5FBFAF00090E068C0F3007058B9E0680F
:1013F000C0F3003038B99DF8040020F00F00083029
:101400008DF8040016E0E068C0F3007058B9E06899
:10141000C0F3003038B19DF8040020F00F0009300F
:101420008DF8040006E09DF8040020F00F00C01DB8
:101430008DF804002069C0F3013020B12069C0F3A9
:101440000130012807D19DF8040020F03000103051
:101450008DF8040006E09DF8040020F030002030F4
:101460008DF80400E068C0F3802038B19DF80400D6
:1014700020F0C00040308DF8040005E09DF8040025
:1014800020F0C0008DF80400DDE90001C6E900018C
:101490009DF8040000F00F00401C9DF8041000EBC4
:1014A0009110C1F3011147180098B0FBF7F808EB51
:1014B000880040F2E73101EB4000491CB0FBF1F934
:1014C000484606B0BDE8F087001001400014014016
:1014D00010B50B490B48FFF76FFF0446214608483B
:1014E000143800F0A3FD4FF48053074A0549091D45
:1014F000064801F061F80121044800F021FA10BD0E
:101500006C0000200010014074200020086402409C
:1015100010B511480068C0F30010E0B110210E486A
:1015200000F009FF00210D4800F00AFA0B48001DE9
:101530000068C0F58054204600F0E4FD4FF480536D
:10154000074A0549091D054801F036F801210348FD
:1015500000F0F6F900BF10BD001001400864024021
:101560007420002000BFFEE702480068C0F302209C
:10157000704700000CED00E010B5002804DB0A07FE
:10158000130E054A135406E00A07140E034A00F02E
:101590000F031B1FD45410BD00E400E018ED00E061
:1015A00080F31088704700000349096860F3071151
:1015B000014A116070470000083802400349096879
:1015C00060F38C21014A1160704700000838024026
:1015D0000349096860F34F31014A11607047000008
:1015E00008380240012807D10749096821F0300175
:1015F0003031054A116005E00349096821F03001E6
:10160000014A116070470000A438024005282BD21F
:10161000DFE800F0030A11182100154A126861F38F
:101620000002134B1A6020E0114A126861F3104265
:101630000F4B1A6019E00E4A126861F318620C4BE6
:101640001A6012E00A4A7032126861F30002084B15
:1016500070331A6009E0064A7432126861F30002BE
:10166000034B74331A6000E000BF00BF70470000F6
:10167000003802402DE9FE4F04464FF00009CA46EB
:10168000CB460020029001900025002600F050F982
:101690000090009820B1012812D002283FD112E01A
:1016A00031480068C0F3803038B12F480068C0F37B
:1016B000003010B12D48206001E02D48206031E05D
:1016C0002C4820602EE028489C380068C0F38050E9
:1016D000029025489C380068C0F3881922489C383D
:1016E000006800F00F0A20489C380068C0F30240F0
:1016F000214911F800B0029810B91D48019001E08D
:101700001C4801900AFB0BFC0198A0FB09700146E4
:10171000624600233846FEF7E9FD206002E01448E7
:10172000206000BF00BF104898380068C0F3031560
:101730001248465D2068F04060600B4898380068A9
:10174000C0F382250E48465D6068F040E0600648C0
:1017500098380068C0F342350A48465D6068F0403A
:10176000A060BDE8FE8F0000A0380240006CDC02E3
:1017700000127A000024F400362900081629000817
:10178000262900082E29000810B501460020094B23
:1017900003EB1142D2F8002801F01F040123A340FB
:1017A0001A4001F01F040123A3409A4200D000E038
:1017B000012010BD0030024030B50024002500E0BB
:1017C000641C1120FFF7E0FF012802D0B4F5405F50
:1017D000F6D31120FFF7D8FF012801D0002500E043
:1017E0000125284630BD000010B501290FD1104B4E
:1017F00003EB1042D2F8002800F01F040123A3409D
:101800001A430B4C04EB1043C3F800280EE0084BBE
:1018100003EB1042D2F8002800F01F040123A3407C
:101820009A43034C04EB1043C3F8002810BD00009A
:101830000030024030B538B90F4C246824F480548D
:1018400004F580540C4D2C600B4C9C3C246860F3D8
:101850009654094D9C3D2C602C46246861F38E14EF
:101860002C602C46246862F303042C602C46246808
:1018700063F312442C6030BDA03802401A4800685F
:1018800020F00100401C1849086000BF164800689D
:10189000C0F340000028F9D013480830006820F059
:1018A000030011490831086000BF0F480830006884
:1018B000C0F381000028F8D10B4800680B490840AC
:1018C0000949086000200849083108600848091FD4
:1018D000086000200449A03108604FF41F0002494D
:1018E0000C3108607047000000380240FFFFF2FE34
:1018F000023003000D49096860F301010B4A1160D1
:1019000000BF00BF00BF00BF00BF00BF00BF00BFDF
:1019100000BF00BF00BF00BF00BF00BF00BF00BFCF
:1019200000BF00BF00BF00BF704700000838024082
:1019300002480068C0F38100704700000838024088
:10194000026861F30002026070470021016041609B
:1019500001814181017341738173C17301744174C9
:1019600070470000B0F1805F04D920F07041034A55
:10197000116001E0024908607047000004660240FF
:101980000464024001460022B1F1805F02D906489A
:10199000026801E00548026802EA010008B101207E
:1019A00070470020FCE7000000660240006402402F
:1019B00002684BF6EF731A40026002680B891A4303
:1019C00002604B7C026863F30D320260CB7B0268DD
:1019D00063F38B2202608B7B026863F3092202604F
:1019E0004B7B026863F3C71202600B7B026863F3F0
:1019F000861202600B7C026863F3451202604B8919
:101A0000426863F30F0242600A6882604A68C260FB
:101A100070471AB103680B43036002E003688B430D
:101A2000036070470021026822F001020260002278
:101A3000026042608260C260014640F2FF620A407A
:101A4000B2F5C16F0DD2CAB2083A1423B2FBF3F259
:101A500093000F229A400D4B1B681A430B4B1A60E0
:101A600012E040F2FF620A40B2F5D16F0CD2CAB266
:101A7000083A1423B2FBF3F293000F229A40044B6E
:101A80001B681A43024B1A6070470000046402404E
:101A900004660240D0F8002161F30002C0F8002182
:101AA0007047026861F306020260704708B501469C
:101AB00000200090034800EB81000090009800682F
:101AC00008BD00005028004008B500220092034ADB
:101AD00002EB80020092009A116008BD502800407D
:101AE00003200B49096801F0010109B100200EE053
:101AF00007490968C1F3800109B1012007E00449E1
:101B00000968C1F3001109B1022000E00320704709
:101B10000C3C024000B502460323FFF7E1FF0346F9
:101B200003E0FFF7DDFF0346521E0BB9002AF8D190
:101B300002B90423184600BD03200B49096801F0CF
:101B4000010109B100200EE007490968C1F38001D5
:101B500009B1012007E004490968C1F3001109B186
:101B6000022000E0032070474C3C024000B50246D2
:101B70000323FFF7E1FF034603E0FFF7DDFF034622
:101B8000521E0BB9002AF8D102B90423184600BD31
:101B900030B504460325B4F1006F1CD321488442BC
:101BA00019D82148006820F0080008301E49086054
:101BB000081D0460001F006820F0400040300860ED
:101BC000C806FFF7A7FF05461748006820F0080081
:101BD0001549086023E01348401C84421FD3B4F128
:101BE000016F1CD210484030006820F00800083017
:101BF0000D4940310860081D0460001F006820F096
:101C0000400040300860C806FFF7B0FF05460648B0
:101C10004030006820F00800034940310860284641
:101C200030BD0000FFFF0708103C024070B50446BD
:101C30000D460326B4F1006F16D31B48844213D817
:101C40001A48006820F00100401C184908602570FF
:101C50004FF48010FFF75EFF06461448006820F03E
:101C60000100124908601DE00F48401C844219D34E
:101C7000B4F1016F16D20D484030006820F0010029
:101C8000401C0A494031086025704FF48010FFF76E
:101C90006DFF064605484030006820F0010003490A
:101CA00040310860304670BDFFFF0708103C02401D
:101CB00000F0E04120F0E04019B1B1F1805F07D1C0
:101CC00002E0054A106004E0034A4032106000E080
:101CD00000BF00BF704700000C3C0240084800688D
:101CE00020F08000803006490860054840300068D8
:101CF00020F08000803002494031086070470000C9
:101D0000103C024005480649086006480860034840
:101D10000349403108600348086070472301674564
:101D2000043C0240AB89EFCD4FF6FF71016000210A
:101D30008171017141710121C171704770B50A460D
:101D400000211488A3B233E003F001046CB30468EB
:101D50004E000325B540AC43046094794D00AC407F
:101D600005682C430460446801258D40AC43446001
:101D7000446815798D402C43446084684E000325E7
:101D8000B540AC438460D4794D00AC4085682C43A9
:101D90008460C4684E000325B540AC43C4605479E8
:101DA0004D00AC40C5682C43C4605B104C1CA1B214
:101DB000002BC9DC70BDF0B5002300244D07ED0EEB
:101DC00002FA05F3CD105DB1456A4E07F70E0F26F6
:101DD000BE40B5434562456A45EA030444620AE0F1
:101DE000056A4E07F70E0F26BE40B5430562056A29
:101DF00045EA03040462F0BD00BF01213748FFF744
:101E0000F3FC012000F008F900BF00BF0020FFF73D
:101E10004DFE334988420DD10120FFF747FE0446AD
:101E20000B2C05D300210120FFF74EFE00200AE015
:101E3000E0B208E02A490020FFF746FE0021012019
:101E4000FFF742FE002006460025022E10D1002199
:101E50002448FEF7BDFC08B9012000E0002005463B
:101E600015B12048FFF788F964201F49086000BFBA
:101E700000BF00F03DFC00F017FC00F0A1FB00F0FB
:101E80009BFC00F037FB00231A461849184800F065
:101E900093FB01211648FFF753FD00F05BFB002385
:101EA0001A4612491248143000F086FB01211048EE
:101EB0001430FFF745FD00F0C7FC00F09DFC002149
:101EC0000B48FFF73DFD002109481430FFF738FDAE
:101ED000FFF7FEFAFEF7E8FC00BFFEE71C0040003B
:101EE0007856341200000108080000200410014058
:101EF0000864024002460A4800681044B0F5804F6A
:101F000002D34FF0FF3070470648054B1B6818445A
:101F10000860034800681044014B18600120F2E794
:101F200024000020743000202DE9F0470B461446B1
:101F30004FF0000C00BF2C4A1268C2F302211D466C
:101F400026460A46C2F10709B9F1040F02D94FF03B
:101F5000040901E0C2F10709C84602F10409B9F118
:101F6000070F02D24FF0000901E0A2F103094F462A
:101F70004FF0010909FA08F9A9F1010909EA05096F
:101F800009FA07F94FF0010A0AFA07FAAAF1010A59
:101F90000AEA060A49EA0A09CC46014662460029CD
:101FA00004DB15072E0E114D6E5407E015072F0E9A
:101FB0000D4D0C3501F00F06361FAF5500BF014621
:101FC00000290DDB00BF00BF01F01F050122AA4060
:101FD0004D09AD0005F1E025C5F8002100BF00BFA7
:101FE00000BFBDE8F08700000CED00E000E400E079
:101FF00000BF00F00702064B19684FF6FF031940B7
:10200000044B0B4343EA0221014B196000BF7047A8
:102010000CED00E00000FA050349096860F30821AF
:10202000014A1160704700000070004070B504461E
:102030000D462560211D2846FFF75CFF064600215E
:10204000A1816181218161822182E181304670BD5F
:1020500010B500BF0120FFF7A3FA00BF04480468D1
:1020600000BF0020FFF79CFA00BF204610BD000013
:1020700020000020012080F3108800BF084801687C
:1020800008480068C0F58052002080F3108800BF27
:10209000002901DC002A01DD012070470020FCE757
:1020A000200000200C64024010B5FFF7D1FF10B9EA
:1020B0004FF0FF3010BD00BF0120FFF771FA00BFE5
:1020C0000D480E490968445C0C490968481CC11751
:1020D00000EB11510913A0EB0131084A11600848C7
:1020E0000068401E0649086000BF0020FFF758FA4C
:1020F00000BF2046DEE70000740000201C00002026
:102100002000002070B504461E4800682044B0F549
:10211000805F36DA0120FFF743FA1B48006820444D
:10212000B0F5805F12DD18480068C0F5805517498A
:10213000154A126888182A461549FEF74EF9621B9F
:10214000134841191148FEF748F907E00F490E4AB4
:102150001268881822460E49FEF73FF909480068C0
:10216000204408490860084909680819C11700EBAC
:1021700011510913A0EB0131034A11600020FFF750
:102180000FFA70BD2000002018000020740000200D
:10219000742000202DE9FC5F002400250026A146C4
:1021A000A246A34600200190FFF7C2FB00900098D2
:1021B00020B1012814D0022841D115E02B48006835
:1021C000C0F3803040B129480068C0F3003018B136
:1021D00027482849086002E027482649086032E07D
:1021E0002648244908602EE020489C380068C0F347
:1021F00080591E489C380068C0F388141B489C38DE
:10220000006800F00F0519489C380068C0F30240D0
:102210001B490E5CB9F1000F02D1DFF85CA001E0B0
:10222000DFF858A005FB06FCAAFB047001466246D5
:1022300000233846FEF75AF80E49086003E00E48BE
:102240000C49086000BF00BF084898380068C0F318
:10225000031B0C4810F80B00019006480068019918
:10226000C84004490860BDE8FC9F0000A038024057
:10227000006CDC021000002000127A000024F40040
:102280004C2900083C290008042808D14FF0E0211F
:10229000096941F004014FF0E022116107E04FF0BD
:1022A000E021096921F004014FF0E022116170473B
:1022B000B0F1804F02D0044A904203D1026861F32A
:1022C0008A22026070470000000C0040C1628262F6
:1022D000436923F001035B1C43617047026861F3AB
:1022E000092202607047026861F3061202607047BB
:1022F000026861F3000202607047026861F3C7126E
:1023000002607047426861F306124260704782685B
:1023100061F3C71282607047426961F386124261BD
:102320007047426961F3C71242617047C26861F346
:102330004D32C260704701F01F0212B1026842685C
:1023400001E0CA430260704741B9426922F48072D9
:102350004261426922F40072426127E001290AD1F8
:10236000426922F4807202F580724261426922F46D
:10237000007242611AE002290AD1426922F4807295
:102380004261426922F4007202F5007242610DE07E
:1023900003290BD1426922F4807202F580724261F6
:1023A000426922F4007202F5007242617047000037
:1023B0002DE9FF4704468846164699466846FFF7CA
:1023C00059F92448844202D02348844201D1029F13
:1023D00000E0039F07EB87004000B0FBF8F50A2000
:1023E000B5FBF0F100FB1150052803D20A20B5FB24
:1023F000F0F503E00A20B5FBF0F0451CA06865F39A
:102400000F00A06056B9E06820F0805000F18050C5
:10241000E060E06820F48050E06014E0012E08D114
:10242000E06820F08050E060E06820F48050E060D8
:1024300009E0E06820F08050E060E06820F480501F
:1024400000F58050E060206969F30D302061BDE83F
:10245000FF870000001001400014014030B5012A40
:102460000BD100EB11431B6801F01F050124AC40A8
:10247000234300EB114423600AE000EB11431B6887
:1024800001F01F050124AC40A34300EB114423607D
:1024900030BD41B9C26822F40072C260C26822F441
:1024A0008062C2601AE001290AD1C26822F4007277
:1024B000C260C26822F4806202F58062C2600DE0F0
:1024C00002290BD1C26822F4007202F50072C260C8
:1024D000C26822F4806202F58062C2607047C268FE
:1024E00061F38202C2607047C26861F3C302C260D6
:1024F0007047000000B585B01548FFF793FA6846AD
:10250000FFF723FA0020ADF808008DF80F00012036
:102510008DF80D0000208DF80E008DF80C008DF860
:1025200011008DF8100069460948FFF741FA0121B2
:1025300007480838FFF7AEFA18210548FC30FFF7C6
:10254000B0FA012202210248FFF763FA05B000BD8C
:102550000864024000B585B01648FFF763FA684684
:10256000FFF7F3F91020ADF8080000208DF80F00F8
:1025700001208DF80D0000208DF80E008DF80C0064
:102580008DF811008DF8100069460A48FFF710FA1F
:10259000012108481C38FFF77DFA19210548EC3065
:1025A000FFF77FFA012202210248FFF732FA05B055
:1025B00000BD00001C64024043608160C26070473F
:1025C00070B50320FFF714FDFEF7CEFF054600228D
:1025D0001146FEF7CAF9044621466FF00B00FEF7DC
:1025E000CBFFFEF7C1FF054600221146FEF7BDF9FD
:1025F000044621466FF00A00FEF7BEFFFEF7B4FF67
:10260000054600221146FEF7B0F9044621466FF058
:102610000900FEF7B1FFFEF7A7FF054600221146AD
:10262000FEF7A3F9044621466FF00400FEF7A4FF6D
:10263000FEF79AFF054600221146FEF796F904467A
:1026400021466FF00300FEF797FFFEF78DFF05466A
:1026500000221146FEF789F9044621466FF0010079
:10266000FEF78AFFFEF780FF054600220F21FEF7E6
:102670007CF9044621464FF0FF30FEF77DFF002233
:1026800011462520FFF750FC002211463220FFF7AB
:102690004BFC002211463820FFF746FC0022114671
:1026A0003920FFF741FC70BD10B501214FF44010F7
:1026B000FFF79AF801210B48FFF796F80121094826
:1026C000801DFFF791F8012106481530FFF78CF8BF
:1026D00001210548FFF788F801210448FFF784F835
:1026E00010BD000001003000030040000400440061
:1026F00010B5FFF7C3F801212B48FFF775F82B48F9
:10270000006920F00700401C28490861284800683B
:1027100020F00300401C2649086001210420FEF738
:1027200075FF00BF2348FFF72FF80128FAD10121D8
:102730000846FEF76BFF00BFFFF73EF80028FBD00E
:1027400001210020FEF762FF00BF0120FFF71CF807
:102750000128FAD10223012248211046FFF76AF826
:1027600001210220FEF752FF00BF1920FFF70CF8ED
:102770000128FAD10020FEF717FF0420FEF728FFFA
:102780000420FEF71BFF0120FEF72CFF0220FFF7BD
:10279000B1F800BFFFF7CCF80228FBD10020FEF70C
:1027A00021FFFFF7F7FC10BD1C0040000070004047
:1027B000603C0240010074001FB500246846FEF72B
:1027C00059FF0198C4080020FFF75EFD0848B4FBDC
:1027D000F0F00849086000204FF0E02188616FF0B8
:1027E0007F4048610846006940F0010008611FBD54
:1027F00040420F000C00002010B501211148FFF7E6
:1028000057FD00210F48FFF76EFD00210D48FFF72F
:1028100065FD00210B48FFF770FD40F21F124FF0DD
:10282000FF310848FFF752FD00210648FFF76FFD12
:1028300000210448FFF766FD01210248FFF758FD1B
:1028400010BD0000000C00401CB56846FFF76CFA94
:10285000072206212A48FFF7AEFA02208DF807006A
:1028600000208DF8040002208DF806004020009022
:1028700000208DF8050069462148FFF75FFA07221E
:1028800011461F48FFF797FA02208DF80700002035
:102890008DF8040002208DF80600802000900020B2
:1028A0008DF8050069461648FFF748FA0023012213
:1028B0004FF461211348FFF77BFD01211148FFF719
:1028C00013FE01210F48FFF70AFE00210D48FFF714
:1028D000E0FD01210B48FFF724FD01210948FFF726
:1028E0001BFD00210748FFF72FFD01210548FFF7D9
:1028F0001DFD012204490348FFF7B0FD1CBD000087
:10290000000402400010014004000C004FF0407031
:10291000E1EE100A70470000000000000000010214
:102920000304060708090000000001020304000078
:10293000000001020304010204081020000000004E
:102940000000000001020304060708090102040850
:10295000102000007E700020907C0020907D0020E0
:10296000005EBCE2613FDD83C29C7E20A3FD1F416F
:102970009DC3217FFCA2401E5F01E3BD3E6082DC5F
:10298000237D9FC1421CFEA0E1BF5D0380DE3C624F
:10299000BEE0025CDF81633D7C22C09E1D43A1FF3F
:1029A0004618FAA427799BC584DA3866E5BB59072F
:1029B000DB856739BAE406581947A5FB7826C49A1F
:1029C000653BD987045AB8E6A7F91B45C6987A240F
:1029D000F8A6441A99C7257B3A6486D85B05E7B9FF
:1029E0008CD2306EEDB3510F4E10F2AC2F7193CDEF
:1029F000114FADF3702ECC92D38D6F31B2EC0E50DF
:102A0000AFF1134DCE90722C6D33D18F0C52B0EECE
:102A1000326C8ED0530DEFB1F0AE4C1291CF2D73BE
:102A2000CA947628ABF517490856B4EA6937D58BAE
:102A30005709EBB536688AD495CB2977F4AA48169E
:102A4000E9B7550B88D6346A2B7597C94A14F6A88E
:102A5000742AC896154BA9F7B6E80A54D7896B357E
:102A600000002110422063308440A550C660E7700A
:102A7000088129914AA16BB18CC1ADD1CEE1EFF1B2
:102A80003112100273325222B5529442F772D6625A
:102A9000399318837BB35AA3BDD39CC3FFF3DEE302
:102AA0006224433420040114E664C774A4448554AA
:102AB0006AA54BB528850995EEE5CFF5ACC58DD552
:102AC0005336722611163006D776F6669556B446FA
:102AD0005BB77AA719973887DFF7FEE79DD7BCC7A2
:102AE000C448E5588668A77840086118022823384A
:102AF000CCC9EDD98EE9AFF9488969990AA92BB9F2
:102B0000F55AD44AB77A966A711A500A333A122A99
:102B1000FDDBDCCBBFFB9EEB799B588B3BBB1AAB41
:102B2000A66C877CE44CC55C222C033C600C411CE9
:102B3000AEED8FFDECCDCDDD2AAD0BBD688D499D91
:102B4000977EB66ED55EF44E133E322E511E700E39
:102B50009FFFBEEFDDDFFCCF1BBF3AAF599F788FE1
:102B60008891A981CAB1EBA10CD12DC14EF16FE1C1
:102B70008010A100C230E3200450254046706760F9
:102B8000B9839893FBA3DAB33DC31CD37FE35EF311
:102B9000B1029012F322D232354214527762567249
:102BA000EAB5CBA5A89589856EF54FE52CD50DC561
:102BB000E234C324A0148104667447642454054499
:102BC000DBA7FAB79987B8975FE77EF71DC73CD7B1
:102BD000D326F2369106B0165766767615463456E9
:102BE0004CD96DC90EF92FE9C899E9898AB9ABA901
:102BF0004458654806782768C018E1088238A32839
:102C00007DCB5CDB3FEB1EFBF98BD89BBBAB9ABB50
:102C1000754A545A376A167AF10AD01AB32A923A88
:102C20002EFD0FED6CDD4DCDAABD8BADE89DC98DA0
:102C3000267C076C645C454CA23C832CE01CC10CD8
:102C40001FEF3EFF5DCF7CDF9BAFBABFD98FF89FF0
:102C5000176E367E554E745E932EB23ED10EF01E28
:102C600000000000963007772C610EEEBA510999EA
:102C700019C46D078FF46A7035A563E9A395649E46
:102C80003288DB0EA4B8DC791EE9D5E088D9D2976A
:102C90002B4CB609BD7CB17E072DB8E7911DBF90C6
:102CA0006410B71DF220B06A4871B9F3DE41BE84EA
:102CB0007DD4DA1AEBE4DD6D51B5D4F4C785D38346
:102CC00056986C13C0A86B647AF962FDECC9658AEA
:102CD0004F5C0114D96C0663633D0FFAF50D088D46
:102CE000C8206E3B5E10694CE44160D5727167A2EA
:102CF000D1E4033C47D4044BFD850DD26BB50AA546
:102D0000FAA8B5356C98B242D6C9BBDB40F9BCAC69
:102D1000E36CD832755CDF45CF0DD6DC593DD1ABC5
:102D2000AC30D9263A00DE518051D7C81661D0BFE9
:102D3000B5F4B42123C4B3569995BACF0FA5BDB845
:102D40009EB802280888055FB2D90CC624E90BB1E9
:102D5000877C6F2F114C6858AB1D61C13D2D66B645
:102D60009041DC760671DB01BC20D2982A10D5EFA9
:102D70008985B1711FB5B606A5E4BF9F33D4B8E805
:102D8000A2C9077834F9000F8EA8099618980EE1A9
:102D9000BB0D6A7F2D3D6D08976C6491015C63E605
:102DA000F4516B6B62616C1CD83065854E0062F229
:102DB000ED95066C7BA5011BC1F4088257C40FF585
:102DC000C6D9B06550E9B712EAB8BE8B7C88B9FCA9
:102DD000DF1DDD62492DDA15F37CD38C654CD4FB05
:102DE0005861B24DCE51B53A7400BCA3E230BBD4A9
:102DF00041A5DF4AD795D83D6DC4D1A4FBF4D6D305
:102E00006AE96943FCD96E34468867ADD0B860DAA8
:102E1000732D0444E51D03335F4C0AAAC97C0DDD04
:102E20003C710550AA41022710100BBE86200CC928
:102E300025B56857B3856F2009D466B99FE461CE84
:102E40000EF9DE5E98C9D9292298D0B0B4A8D7C7A8
:102E5000173DB359810DB42E3B5CBDB7AD6CBAC004
:102E60002083B8EDB6B3BF9A0CE2B6039AD2B17420
:102E70003947D5EAAF77D29D1526DB048316DC737C
:102E8000120B63E3843B64943E6A6D0DA85A6A7A20
:102E90000BCF0EE49DFF099327AE000AB19E077D7C
:102EA00044930FF0D2A3088768F2011EFEC20669A0
:102EB0005D5762F7CB67658071366C19E7066B6EFC
:102EC000761BD4FEE02BD3895A7ADA10CC4ADD6720
:102ED0006FDFB9F9F9EFBE8E43BEB717D58EB0607C
:102EE000E8A3D6D67E93D1A1C4C2D83852F2DF4F20
:102EF000F167BBD16757BCA6DD06B53F4B36B2487C
:102F0000DA2B0DD84C1B0AAFF64A0336607A04411F
:102F1000C3EF60DF55DF67A8EF8E6E3179BE69467B
:102F20008CB361CB1A8366BCA0D26F2536E268529F
:102F300095770CCC03470BBBB91602222F260555FB
:102F4000BE3BBAC5280BBDB2925AB42B046AB35C1F
:102F5000A7FFD7C231CFD0B58B9ED92C1DAEDE5B7B
:102F6000B0C2649B26F263EC9CA36A750A936D025F
:102F7000A906099C3F360EEB8567077213570005BB
:102F8000824ABF95147AB8E2AE2BB17B381BB60CDF
:102F90009B8ED2920DBED5E5B7EFDC7C21DFDB0B3B
:102FA000D4D2D38642E2D4F1F8B3DD686E83DA1F5F
:102FB000CD16BE815B26B9F6E177B06F7747B718BB
:102FC000E65A0888706A0FFFCA3B06665C0B01115F
:102FD000FF9E658F69AE62F8D3FF6B6145CF6C16BB
:102FE00078E20AA0EED20DD75483044EC2B303395F
:102FF000612667A7F71660D04D476949DB776E3EBB
:103000004A6AD1AEDC5AD6D9660BDF40F03BD837DE
:1030100053AEBCA9C59EBBDE7FCFB247E9FFB5303A
:103020001CF2BDBD8AC2BACA3093B353A6A3B4245E
:103030000536D0BA9306D7CD2957DE54BF67D923BA
:103040002E7A66B3B84A61C4021B685D942B6F2A5E
:1030500037BE0BB4A18E0CC31BDF055A8DEF022DBA
:1030600078405C2A092633410411146E722E0B3EFF
:10307000682B7A2C106D464F420577471D30186239
:1030800028583615495B4D4C7B34026C6601235F32
:10309000564B5D671E716B657D73243F226F06760C
:1030A0001732553725480054572F643B635A7E4EDC
:1030B00050356153160C3A527C511B75074A5938EA
:1030C000270A21310869792D0F437F74441A3C4542
:1030D00003293D70130D39201C601F12195E6A0E02
:1030E0004E7C435340736C051B0F5D282039512CD7
:1030F000692203704D7D61681C25473249182E6690
:103100000413350224656E420A212B583A017E07CA
:103110003316712D341F4117113B30195675454434
:103120002A0C31795B64146F081052066D126B5FC4
:1031300055627F4A381D095A1E4F5027363E1A5E87
:10314000594B0D3C2937677715763F5C740E2F7A03
:10315000602378260B3D6A540063577B464C7248C7
:10316000444554412D3430008831000800000020CF
:103170005800000048020008E03100085800002014
:1031800078850000640200080000000000000000D4
:10319000000000000000000000127A0000000000A3
:1031A000000000000000000000000000000000001F
:1031B000000000000000000000000000000000000F
:1031C00000000000000000000000000000000000FF
:1031D000FF000000000000000000000000000000F0
:040000050800020DE0
:00000001FF
